{
  "_format": "hh-sol-artifact-1",
  "contractName": "ProductVerification",
  "sourceName": "contracts/ProductVerification.sol",
  "abi": [
    {
      "anonymous": false,
      "inputs": [
        {
          "indexed": true,
          "internalType": "address",
          "name": "previousOwner",
          "type": "address"
        },
        {
          "indexed": true,
          "internalType": "address",
          "name": "newOwner",
          "type": "address"
        }
      ],
      "name": "OwnershipTransferred",
      "type": "event"
    },
    {
      "anonymous": false,
      "inputs": [
        {
          "indexed": false,
          "internalType": "string",
          "name": "productId",
          "type": "string"
        }
      ],
      "name": "ProductDeleted",
      "type": "event"
    },
    {
      "anonymous": false,
      "inputs": [
        {
          "indexed": false,
          "internalType": "string",
          "name": "productId",
          "type": "string"
        },
        {
          "indexed": false,
          "internalType": "string",
          "name": "name",
          "type": "string"
        },
        {
          "indexed": false,
          "internalType": "string",
          "name": "manufacturer",
          "type": "string"
        }
      ],
      "name": "ProductRegistered",
      "type": "event"
    },
    {
      "anonymous": false,
      "inputs": [
        {
          "indexed": false,
          "internalType": "string",
          "name": "productId",
          "type": "string"
        },
        {
          "indexed": false,
          "internalType": "string",
          "name": "name",
          "type": "string"
        },
        {
          "indexed": false,
          "internalType": "string",
          "name": "manufacturer",
          "type": "string"
        }
      ],
      "name": "ProductUpdated",
      "type": "event"
    },
    {
      "anonymous": false,
      "inputs": [
        {
          "indexed": false,
          "internalType": "string",
          "name": "productId",
          "type": "string"
        },
        {
          "indexed": false,
          "internalType": "bool",
          "name": "isVerified",
          "type": "bool"
        }
      ],
      "name": "ProductVerified",
      "type": "event"
    },
    {
      "inputs": [
        {
          "internalType": "string",
          "name": "productId",
          "type": "string"
        }
      ],
      "name": "deleteProduct",
      "outputs": [],
      "stateMutability": "nonpayable",
      "type": "function"
    },
    {
      "inputs": [],
      "name": "getAllProducts",
      "outputs": [
        {
          "internalType": "string[]",
          "name": "",
          "type": "string[]"
        },
        {
          "components": [
            {
              "internalType": "string",
              "name": "name",
              "type": "string"
            },
            {
              "internalType": "string",
              "name": "manufacturer",
              "type": "string"
            },
            {
              "internalType": "uint256",
              "name": "productionDate",
              "type": "uint256"
            },
            {
              "internalType": "bool",
              "name": "exists",
              "type": "bool"
            },
            {
              "internalType": "bool",
              "name": "isVerified",
              "type": "bool"
            }
          ],
          "internalType": "struct ProductVerification.Product[]",
          "name": "",
          "type": "tuple[]"
        }
      ],
      "stateMutability": "view",
      "type": "function"
    },
    {
      "inputs": [
        {
          "internalType": "string",
          "name": "productId",
          "type": "string"
        }
      ],
      "name": "getProductDetails",
      "outputs": [
        {
          "internalType": "string",
          "name": "name",
          "type": "string"
        },
        {
          "internalType": "string",
          "name": "manufacturer",
          "type": "string"
        },
        {
          "internalType": "uint256",
          "name": "productionDate",
          "type": "uint256"
        },
        {
          "internalType": "bool",
          "name": "isVerified",
          "type": "bool"
        }
      ],
      "stateMutability": "view",
      "type": "function"
    },
    {
      "inputs": [],
      "name": "owner",
      "outputs": [
        {
          "internalType": "address",
          "name": "",
          "type": "address"
        }
      ],
      "stateMutability": "view",
      "type": "function"
    },
    {
      "inputs": [
        {
          "internalType": "string",
          "name": "productId",
          "type": "string"
        },
        {
          "internalType": "string",
          "name": "name",
          "type": "string"
        },
        {
          "internalType": "string",
          "name": "manufacturer",
          "type": "string"
        },
        {
          "internalType": "uint256",
          "name": "productionDate",
          "type": "uint256"
        }
      ],
      "name": "registerProduct",
      "outputs": [],
      "stateMutability": "nonpayable",
      "type": "function"
    },
    {
      "inputs": [],
      "name": "renounceOwnership",
      "outputs": [],
      "stateMutability": "nonpayable",
      "type": "function"
    },
    {
      "inputs": [
        {
          "internalType": "address",
          "name": "newOwner",
          "type": "address"
        }
      ],
      "name": "transferOwnership",
      "outputs": [],
      "stateMutability": "nonpayable",
      "type": "function"
    },
    {
      "inputs": [
        {
          "internalType": "string",
          "name": "productId",
          "type": "string"
        },
        {
          "internalType": "string",
          "name": "name",
          "type": "string"
        },
        {
          "internalType": "string",
          "name": "manufacturer",
          "type": "string"
        },
        {
          "internalType": "uint256",
          "name": "productionDate",
          "type": "uint256"
        }
      ],
      "name": "updateProduct",
      "outputs": [],
      "stateMutability": "nonpayable",
      "type": "function"
    },
    {
      "inputs": [
        {
          "internalType": "string",
          "name": "productId",
          "type": "string"
        }
      ],
      "name": "verifyProduct",
      "outputs": [
        {
          "internalType": "bool",
          "name": "",
          "type": "bool"
        }
      ],
      "stateMutability": "nonpayable",
      "type": "function"
    }
  ],
  "bytecode": "0x608060405234801561001057600080fd5b5061002d61002261003260201b60201c565b61003a60201b60201c565b6100fe565b600033905090565b60008060009054906101000a900473ffffffffffffffffffffffffffffffffffffffff169050816000806101000a81548173ffffffffffffffffffffffffffffffffffffffff021916908373ffffffffffffffffffffffffffffffffffffffff1602179055508173ffffffffffffffffffffffffffffffffffffffff168173ffffffffffffffffffffffffffffffffffffffff167f8be0079c531659141344cd1fd0a4f28419497f9722a3daafe3b4186f6b6457e060405160405180910390a35050565b612465806200010e6000396000f3fe608060405234801561001057600080fd5b50600436106100935760003560e01c806372139d9a1161006657806372139d9a146101105780638da5cb5b1461012c57806392efc4531461014a578063cb05765e1461017a578063f2fde38b1461019657610093565b806302ee3a5214610098578063198c59b0146100b75780632bccd42b146100ea578063715018a614610106575b600080fd5b6100a06101b2565b6040516100ae92919061152f565b60405180910390f35b6100d160048036038101906100cc91906116af565b610604565b6040516100e19493929190611760565b60405180910390f35b61010460048036038101906100ff91906117df565b61082f565b005b61010e610a03565b005b61012a600480360381019061012591906116af565b610a17565b005b610134610c2d565b60405161014191906118db565b60405180910390f35b610164600480360381019061015f91906116af565b610c56565b60405161017191906118f6565b60405180910390f35b610194600480360381019061018f91906117df565b610d4b565b005b6101b060048036038101906101ab919061193d565b61100d565b005b6060806000805b600280549050811015610239576001600282815481106101dc576101db61196a565b5b906000526020600020016040516101f39190611a9c565b908152602001604051809103902060030160009054906101000a900460ff161561022657818061022290611ae2565b9250505b808061023190611ae2565b9150506101b9565b5060008167ffffffffffffffff81111561025657610255611584565b5b60405190808252806020026020018201604052801561028957816020015b60608152602001906001900390816102745790505b50905060008267ffffffffffffffff8111156102a8576102a7611584565b5b6040519080825280602002602001820160405280156102e157816020015b6102ce6111da565b8152602001906001900390816102c65790505b5090506000805b6002805490508110156105f55760016002828154811061030b5761030a61196a565b5b906000526020600020016040516103229190611a9c565b908152602001604051809103902060030160009054906101000a900460ff16156105e2576002818154811061035a5761035961196a565b5b90600052602060002001805461036f906119c8565b80601f016020809104026020016040519081016040528092919081815260200182805461039b906119c8565b80156103e85780601f106103bd576101008083540402835291602001916103e8565b820191906000526020600020905b8154815290600101906020018083116103cb57829003601f168201915b5050505050848381518110610400576103ff61196a565b5b60200260200101819052506001600282815481106104215761042061196a565b5b906000526020600020016040516104389190611a9c565b90815260200160405180910390206040518060a0016040529081600082018054610461906119c8565b80601f016020809104026020016040519081016040528092919081815260200182805461048d906119c8565b80156104da5780601f106104af576101008083540402835291602001916104da565b820191906000526020600020905b8154815290600101906020018083116104bd57829003601f168201915b505050505081526020016001820180546104f3906119c8565b80601f016020809104026020016040519081016040528092919081815260200182805461051f906119c8565b801561056c5780601f106105415761010080835404028352916020019161056c565b820191906000526020600020905b81548152906001019060200180831161054f57829003601f168201915b50505050508152602001600282015481526020016003820160009054906101000a900460ff161515151581526020016003820160019054906101000a900460ff1615151515815250508383815181106105c8576105c761196a565b5b602002602001018190525081806105de90611ae2565b9250505b80806105ed90611ae2565b9150506102e8565b50828295509550505050509091565b6060806000808460018160405161061b9190611b5b565b908152602001604051809103902060030160009054906101000a900460ff16610679576040517f08c379a000000000000000000000000000000000000000000000000000000000815260040161067090611bbe565b60405180910390fd5b600060018760405161068b9190611b5b565b90815260200160405180910390206040518060a00160405290816000820180546106b4906119c8565b80601f01602080910402602001604051908101604052809291908181526020018280546106e0906119c8565b801561072d5780601f106107025761010080835404028352916020019161072d565b820191906000526020600020905b81548152906001019060200180831161071057829003601f168201915b50505050508152602001600182018054610746906119c8565b80601f0160208091040260200160405190810160405280929190818152602001828054610772906119c8565b80156107bf5780601f10610794576101008083540402835291602001916107bf565b820191906000526020600020905b8154815290600101906020018083116107a257829003601f168201915b50505050508152602001600282015481526020016003820160009054906101000a900460ff161515151581526020016003820160019054906101000a900460ff16151515158152505090508060000151816020015182604001518360800151955095509550955050509193509193565b610837611090565b836001816040516108489190611b5b565b908152602001604051809103902060030160009054906101000a900460ff166108a6576040517f08c379a000000000000000000000000000000000000000000000000000000000815260040161089d90611bbe565b60405180910390fd5b60008451116108ea576040517f08c379a00000000000000000000000000000000000000000000000000000000081526004016108e190611c2a565b60405180910390fd5b600083511161092e576040517f08c379a000000000000000000000000000000000000000000000000000000000815260040161092590611c96565b60405180910390fd5b60008211610971576040517f08c379a000000000000000000000000000000000000000000000000000000000815260040161096890611d02565b60405180910390fd5b60006001866040516109839190611b5b565b90815260200160405180910390209050848160000190816109a49190611eb9565b50838160010190816109b69190611eb9565b508281600201819055507f1670a9b4e3ac0933e134251494c9dce2d2bed6f1978cad1e306e10e9229997758686866040516109f393929190611f8b565b60405180910390a1505050505050565b610a0b611090565b610a15600061110e565b565b610a1f611090565b80600181604051610a309190611b5b565b908152602001604051809103902060030160009054906101000a900460ff16610a8e576040517f08c379a0000000000000000000000000000000000000000000000000000000008152600401610a8590611bbe565b60405180910390fd5b600182604051610a9e9190611b5b565b908152602001604051809103902060008082016000610abd919061120d565b600182016000610acd919061120d565b60028201600090556003820160006101000a81549060ff02191690556003820160016101000a81549060ff0219169055505060005b600280549050811015610bf157828051906020012060028281548110610b2b57610b2a61196a565b5b90600052602060002001604051610b42919061207a565b604051809103902003610bde5760026001600280549050610b639190612091565b81548110610b7457610b7361196a565b5b9060005260206000200160028281548110610b9257610b9161196a565b5b906000526020600020019081610ba891906120f0565b506002805480610bbb57610bba6121d8565b5b600190038181906000526020600020016000610bd7919061120d565b9055610bf1565b8080610be990611ae2565b915050610b02565b507f959ad8b1befbeb936d9a91bf2f741a2f7a8fcf9a0cb38ece37ca3e9814041eab82604051610c219190612207565b60405180910390a15050565b60008060009054906101000a900473ffffffffffffffffffffffffffffffffffffffff16905090565b600081600181604051610c699190611b5b565b908152602001604051809103902060030160009054906101000a900460ff16610cc7576040517f08c379a0000000000000000000000000000000000000000000000000000000008152600401610cbe90611bbe565b60405180910390fd5b6000600184604051610cd99190611b5b565b9081526020016040518091039020905060018160030160016101000a81548160ff0219169083151502179055507f344ba70057b3572137fc8714c11111786b52a6098c0002e23754e3c3d6025519846001604051610d38929190612229565b60405180910390a1600192505050919050565b610d53611090565b83600181604051610d649190611b5b565b908152602001604051809103902060030160009054906101000a900460ff1615610dc3576040517f08c379a0000000000000000000000000000000000000000000000000000000008152600401610dba906122a5565b60405180910390fd5b6000855111610e07576040517f08c379a0000000000000000000000000000000000000000000000000000000008152600401610dfe90612311565b60405180910390fd5b6000845111610e4b576040517f08c379a0000000000000000000000000000000000000000000000000000000008152600401610e4290611c2a565b60405180910390fd5b6000835111610e8f576040517f08c379a0000000000000000000000000000000000000000000000000000000008152600401610e8690611c96565b60405180910390fd5b60008211610ed2576040517f08c379a0000000000000000000000000000000000000000000000000000000008152600401610ec990611d02565b60405180910390fd5b6040518060a0016040528085815260200184815260200183815260200160011515815260200160001515815250600186604051610f0f9190611b5b565b90815260200160405180910390206000820151816000019081610f329190611eb9565b506020820151816001019081610f489190611eb9565b506040820151816002015560608201518160030160006101000a81548160ff02191690831515021790555060808201518160030160016101000a81548160ff021916908315150217905550905050600285908060018154018082558091505060019003906000526020600020016000909190919091509081610fca9190611eb9565b507f5a304478b5ad812924e60fb3ee7fadbb2269effa0df0ede39b00fc1c606ee0c0858585604051610ffe93929190611f8b565b60405180910390a15050505050565b611015611090565b600073ffffffffffffffffffffffffffffffffffffffff168173ffffffffffffffffffffffffffffffffffffffff1603611084576040517f08c379a000000000000000000000000000000000000000000000000000000000815260040161107b906123a3565b60405180910390fd5b61108d8161110e565b50565b6110986111d2565b73ffffffffffffffffffffffffffffffffffffffff166110b6610c2d565b73ffffffffffffffffffffffffffffffffffffffff161461110c576040517f08c379a00000000000000000000000000000000000000000000000000000000081526004016111039061240f565b60405180910390fd5b565b60008060009054906101000a900473ffffffffffffffffffffffffffffffffffffffff169050816000806101000a81548173ffffffffffffffffffffffffffffffffffffffff021916908373ffffffffffffffffffffffffffffffffffffffff1602179055508173ffffffffffffffffffffffffffffffffffffffff168173ffffffffffffffffffffffffffffffffffffffff167f8be0079c531659141344cd1fd0a4f28419497f9722a3daafe3b4186f6b6457e060405160405180910390a35050565b600033905090565b6040518060a001604052806060815260200160608152602001600081526020016000151581526020016000151581525090565b508054611219906119c8565b6000825580601f1061122b575061124a565b601f016020900490600052602060002090810190611249919061124d565b5b50565b5b8082111561126657600081600090555060010161124e565b5090565b600081519050919050565b600082825260208201905092915050565b6000819050602082019050919050565b600081519050919050565b600082825260208201905092915050565b60005b838110156112d05780820151818401526020810190506112b5565b60008484015250505050565b6000601f19601f8301169050919050565b60006112f882611296565b61130281856112a1565b93506113128185602086016112b2565b61131b816112dc565b840191505092915050565b600061133283836112ed565b905092915050565b6000602082019050919050565b60006113528261126a565b61135c8185611275565b93508360208202850161136e85611286565b8060005b858110156113aa578484038952815161138b8582611326565b94506113968361133a565b925060208a01995050600181019050611372565b50829750879550505050505092915050565b600081519050919050565b600082825260208201905092915050565b6000819050602082019050919050565b6000819050919050565b6113fb816113e8565b82525050565b60008115159050919050565b61141681611401565b82525050565b600060a083016000830151848203600086015261143982826112ed565b9150506020830151848203602086015261145382826112ed565b915050604083015161146860408601826113f2565b50606083015161147b606086018261140d565b50608083015161148e608086018261140d565b508091505092915050565b60006114a5838361141c565b905092915050565b6000602082019050919050565b60006114c5826113bc565b6114cf81856113c7565b9350836020820285016114e1856113d8565b8060005b8581101561151d57848403895281516114fe8582611499565b9450611509836114ad565b925060208a019950506001810190506114e5565b50829750879550505050505092915050565b600060408201905081810360008301526115498185611347565b9050818103602083015261155d81846114ba565b90509392505050565b6000604051905090565b600080fd5b600080fd5b600080fd5b600080fd5b7f4e487b7100000000000000000000000000000000000000000000000000000000600052604160045260246000fd5b6115bc826112dc565b810181811067ffffffffffffffff821117156115db576115da611584565b5b80604052505050565b60006115ee611566565b90506115fa82826115b3565b919050565b600067ffffffffffffffff82111561161a57611619611584565b5b611623826112dc565b9050602081019050919050565b82818337600083830152505050565b600061165261164d846115ff565b6115e4565b90508281526020810184848401111561166e5761166d61157f565b5b611679848285611630565b509392505050565b600082601f8301126116965761169561157a565b5b81356116a684826020860161163f565b91505092915050565b6000602082840312156116c5576116c4611570565b5b600082013567ffffffffffffffff8111156116e3576116e2611575565b5b6116ef84828501611681565b91505092915050565b600082825260208201905092915050565b600061171482611296565b61171e81856116f8565b935061172e8185602086016112b2565b611737816112dc565b840191505092915050565b61174b816113e8565b82525050565b61175a81611401565b82525050565b6000608082019050818103600083015261177a8187611709565b9050818103602083015261178e8186611709565b905061179d6040830185611742565b6117aa6060830184611751565b95945050505050565b6117bc816113e8565b81146117c757600080fd5b50565b6000813590506117d9816117b3565b92915050565b600080600080608085870312156117f9576117f8611570565b5b600085013567ffffffffffffffff81111561181757611816611575565b5b61182387828801611681565b945050602085013567ffffffffffffffff81111561184457611843611575565b5b61185087828801611681565b935050604085013567ffffffffffffffff81111561187157611870611575565b5b61187d87828801611681565b925050606061188e878288016117ca565b91505092959194509250565b600073ffffffffffffffffffffffffffffffffffffffff82169050919050565b60006118c58261189a565b9050919050565b6118d5816118ba565b82525050565b60006020820190506118f060008301846118cc565b92915050565b600060208201905061190b6000830184611751565b92915050565b61191a816118ba565b811461192557600080fd5b50565b60008135905061193781611911565b92915050565b60006020828403121561195357611952611570565b5b600061196184828501611928565b91505092915050565b7f4e487b7100000000000000000000000000000000000000000000000000000000600052603260045260246000fd5b7f4e487b7100000000000000000000000000000000000000000000000000000000600052602260045260246000fd5b600060028204905060018216806119e057607f821691505b6020821081036119f3576119f2611999565b5b50919050565b600081905092915050565b60008190508160005260206000209050919050565b60008154611a26816119c8565b611a3081866119f9565b94506001821660008114611a4b5760018114611a6057611a93565b60ff1983168652811515820286019350611a93565b611a6985611a04565b60005b83811015611a8b57815481890152600182019150602081019050611a6c565b838801955050505b50505092915050565b6000611aa88284611a19565b915081905092915050565b7f4e487b7100000000000000000000000000000000000000000000000000000000600052601160045260246000fd5b6000611aed826113e8565b91507fffffffffffffffffffffffffffffffffffffffffffffffffffffffffffffffff8203611b1f57611b1e611ab3565b5b600182019050919050565b6000611b3582611296565b611b3f81856119f9565b9350611b4f8185602086016112b2565b80840191505092915050565b6000611b678284611b2a565b915081905092915050565b7f50726f6475637420646f6573206e6f7420657869737400000000000000000000600082015250565b6000611ba86016836116f8565b9150611bb382611b72565b602082019050919050565b60006020820190508181036000830152611bd781611b9b565b9050919050565b7f4e616d652063616e6e6f7420626520656d707479000000000000000000000000600082015250565b6000611c146014836116f8565b9150611c1f82611bde565b602082019050919050565b60006020820190508181036000830152611c4381611c07565b9050919050565b7f4d616e7566616374757265722063616e6e6f7420626520656d70747900000000600082015250565b6000611c80601c836116f8565b9150611c8b82611c4a565b602082019050919050565b60006020820190508181036000830152611caf81611c73565b9050919050565b7f496e76616c69642070726f64756374696f6e2064617465000000000000000000600082015250565b6000611cec6017836116f8565b9150611cf782611cb6565b602082019050919050565b60006020820190508181036000830152611d1b81611cdf565b9050919050565b60006020601f8301049050919050565b600082821b905092915050565b600060088302611d6f7fffffffffffffffffffffffffffffffffffffffffffffffffffffffffffffffff82611d32565b611d798683611d32565b95508019841693508086168417925050509392505050565b6000819050919050565b6000611db6611db1611dac846113e8565b611d91565b6113e8565b9050919050565b6000819050919050565b611dd083611d9b565b611de4611ddc82611dbd565b848454611d3f565b825550505050565b600090565b611df9611dec565b611e04818484611dc7565b505050565b5b81811015611e2857611e1d600082611df1565b600181019050611e0a565b5050565b601f821115611e6d57611e3e81611a04565b611e4784611d22565b81016020851015611e56578190505b611e6a611e6285611d22565b830182611e09565b50505b505050565b600082821c905092915050565b6000611e9060001984600802611e72565b1980831691505092915050565b6000611ea98383611e7f565b9150826002028217905092915050565b611ec282611296565b67ffffffffffffffff811115611edb57611eda611584565b5b611ee582546119c8565b611ef0828285611e2c565b600060209050601f831160018114611f235760008415611f11578287015190505b611f1b8582611e9d565b865550611f83565b601f198416611f3186611a04565b60005b82811015611f5957848901518255600182019150602085019450602081019050611f34565b86831015611f765784890151611f72601f891682611e7f565b8355505b6001600288020188555050505b505050505050565b60006060820190508181036000830152611fa58186611709565b90508181036020830152611fb98185611709565b90508181036040830152611fcd8184611709565b9050949350505050565b600081905092915050565b60008190508160005260206000209050919050565b60008154612004816119c8565b61200e8186611fd7565b94506001821660008114612029576001811461203e57612071565b60ff1983168652811515820286019350612071565b61204785611fe2565b60005b838110156120695781548189015260018201915060208101905061204a565b838801955050505b50505092915050565b60006120868284611ff7565b915081905092915050565b600061209c826113e8565b91506120a7836113e8565b92508282039050818111156120bf576120be611ab3565b5b92915050565b6000815490506120d4816119c8565b9050919050565b60008190508160005260206000209050919050565b8181036120fe5750506121d6565b612107826120c5565b67ffffffffffffffff8111156121205761211f611584565b5b61212a82546119c8565b612135828285611e2c565b6000601f8311600181146121645760008415612152578287015490505b61215c8582611e9d565b8655506121cf565b601f198416612172876120db565b965061217d86611a04565b60005b828110156121a557848901548255600182019150600185019450602081019050612180565b868310156121c257848901546121be601f891682611e7f565b8355505b6001600288020188555050505b5050505050505b565b7f4e487b7100000000000000000000000000000000000000000000000000000000600052603160045260246000fd5b600060208201905081810360008301526122218184611709565b905092915050565b600060408201905081810360008301526122438185611709565b90506122526020830184611751565b9392505050565b7f50726f6475637420616c72656164792065786973747300000000000000000000600082015250565b600061228f6016836116f8565b915061229a82612259565b602082019050919050565b600060208201905081810360008301526122be81612282565b9050919050565b7f50726f647563742049442063616e6e6f7420626520656d707479000000000000600082015250565b60006122fb601a836116f8565b9150612306826122c5565b602082019050919050565b6000602082019050818103600083015261232a816122ee565b9050919050565b7f4f776e61626c653a206e6577206f776e657220697320746865207a65726f206160008201527f6464726573730000000000000000000000000000000000000000000000000000602082015250565b600061238d6026836116f8565b915061239882612331565b604082019050919050565b600060208201905081810360008301526123bc81612380565b9050919050565b7f4f776e61626c653a2063616c6c6572206973206e6f7420746865206f776e6572600082015250565b60006123f96020836116f8565b9150612404826123c3565b602082019050919050565b60006020820190508181036000830152612428816123ec565b905091905056fea2646970667358221220f06918ae0158c57a533d296ef4d952b72c686435b655de94780a0ef0c5927f8664736f6c63430008130033",
  "linkReferences": {},
  "deployedLinkReferences": {}
}